:100000000200F4805E120065D2807C007D02120046
:1000100079C280D2817C007D05120079C281D282B2
:100020007C007D02120079C282D2837C007D0212A4
:100030000079C283D2847C007D05120079C284D20B
:10004000857C007D02120079C285D2867C007D010C
:10005000120079C286D2877C007D01120079C287A6
:1000600080A62280A0801075800075900075A00089
:1000700075B0007589012280EE80498C208D217C2D
:10008000007D34AA20AB211200C68A208B21E520F6
:1000900030E70280028002802A758C00758A00D2C7
:1000A0008C8000208D02800280F9C28CC28DE521F7
:1000B00024FFF521E52034FFF520E52030E702801C
:1000C0000280D62280B5C000C001ED8BF0A4F8A953
:1000D000F0ED8AF0A429F9EC8BF0A429FAE8FBD022
:1000E00001D00022E4F5D0758122F520F52112001F
:0700F000030200000200E41E
:0C010000000200050002000500010001E3
:00000001FF
