:100000000203D38052120059E4F528F5298008052F
:1000100029E52970020528E52924FDE528648034B6
:100020007F5002800280E81200C2EBF520E520B587
:100030002102800AE520246760048000800480009B
:10004000800A852021AD2112035D8008E520B49946
:100050000375212080B22280AC8065758000759088
:100060000075A00075B000752199E4F526F5277597
:100070002400752508E4F522F5237D021203B07DE6
:100080007312035D7D7412035D7D6112035D7D72E9
:1000900012035D7D7412035DE4F528F529800805DF
:1000A00029E52970020528E52924CEE52864803455
:1000B0007F5002800280E81203A0E4F522F523229B
:1000C000809902035A752E99C282A28292819280EF
:1000D000D2A4A2A492A392A292A192A020A0028054
:1000E000028006752A00752B0420A102800280067A
:1000F000752A00752B0320A20280028006752A0053
:10010000752B0220A30280028006752A00752B0140
:1001100020A40280028005E4F52AF52B30A0098096
:100120000030A10480008002800730A2048000809B
:1001300002800730A30480008002800730A404807E
:1001400000800480008005AB2E020359D282A28277
:1001500092819280C2A4A2A492A392A292A192A000
:1001600020800280028005E4F52CF52D208102809C
:10017000028006752C00752D012082028002800607
:10018000752C00752D02E52B452A700C8000E52D9D
:10019000452C70048000800480008003752E37E5B4
:1001A0002BB40111E52AB4000C8000E52D452C701C
:1001B000048000800480008003752E38E52BB40293
:1001C00011E52AB4000C8000E52D452C7004800058
:1001D000800480008003752E39E52BB40311E52AD5
:1001E000B4000C8000E52D452C7004800080048054
:1001F000008003752E2BE52BB40411E52AB4000C06
:100200008000E52D452C7004800080048000800370
:10021000752E2DE52B452A70108000E52DB40109BF
:10022000E52CB400048000800480008003752E3427
:10023000E52BB40115E52AB400108000E52DB401CA
:1002400009E52CB400048000800480008003752E32
:1002500035E52BB40215E52AB400108000E52DB475
:100260000109E52CB400048000800480008003753F
:100270002E36E52BB40315E52AB400108000E52DD9
:10028000B40109E52CB400048000800480008003E0
:10029000752E2AE52BB40415E52AB400108000E57C
:1002A0002DB40109E52CB400048000800480008096
:1002B00003752E2FE52B452A70108000E52DB40222
:1002C00009E52CB400048000800480008003752EB2
:1002D00031E52BB40115E52AB400108000E52DB4FA
:1002E0000209E52CB40004800080048000800375BE
:1002F0002E32E52BB40215E52AB400108000E52D5E
:10030000B40209E52CB4000480008004800080035E
:10031000752E33E52BB40315E52AB400108000E5F3
:100320002DB40209E52CB400048000800480008014
:1003300003752E30E52BB40415E52AB400108000B7
:10034000E52DB40209E52CB400048000800480008F
:100350008003752E2EAB2E8000220200C5803F8DBB
:100360002AE52524FFFDE52434FFFCC3ED95238514
:1003700022F063F080EC648095F050028002800AE5
:10038000E4F522F5231203A080080523E52370027B
:100390000522D2B1C2B0852A90D2B2C2B22280BFA9
:1003A000800CC2B1C2B0759001D2B2C2B22280F24A
:1003B000800BC2B1C2B08D90D2B2C2B22280F3E43F
:1003C000F5D075812F78207A0FF608DAFC12000339
:0603D0000200000203BF61
:00000001FF
