:100000000200EFE4F5F0F8F9EA4B6043EC4D7013B1
:1000100022EAC39C40137004EB9D400DEDC333FDF9
:10002000EC33FC05F0EC30E7E8EAC39C40067007CF
:10003000EB9D5003C38008C3EB9DFBEA9CFAD3E918
:1000400033F9E833F8ECC313FCED13FDD5F0DA8B8C
:10005000058A048802890322C000C001120003D06F
:1000600001D00022C000C001120003D001D0008CDA
:10007000028D0322EA30E707E4C39BFBE49AFAEC23
:1000800030E707E4C39DFDE49CFC22120093AA0420
:10009000AB0522C000C001EC6A33EA13C0E01200D5
:1000A00074120003D0E0C0E030E707E4C39BFBE438
:1000B0009AFAD0E030E607E4C39DFDE49CFCD00151
:1000C000D00022C006C007AE04AF058E838F821217
:1000D000027BA3AE83AF8270F2EFC39505FBEE9572
:1000E00004FAEB24FFFBEA34FFFAD007D006220221
:0200F0000311FA
:10010000796F7572206D6F74686572206F6E2073E1
:10011000616C6500800D1201257C017D0012019348
:1001200080FE2280F1802D7522017525027523083D
:1001300075240E7526047527067528807529C075E7
:100140002AC1752B83752C38C287D286D285AD2201
:100150001201842280D1800BD286C2878DA0D285E5
:10016000C2852280F3801B8C2F8D30AC2FAD3012D6
:1001700000C38A2D8B2EAA2FAB307C007D3112025A
:10018000EE2280E3800BC286C2878DA0D285C28515
:100190002280F30202788C2F8D30AC2FAD3012000C
:1001A000C38A2D8B2EE4F531F532AA2FAB307C00BB
:1001B0007D331202EEAD22120184AD29120184AD0D
:1001C00028120184D286C287AD22120184E4F52070
:1001D000F52102025B7C007D0AAA31AB3212008B52
:1001E000EB24F8EA6480347F50028015C3E5329531
:1001F000218520F063F080E531648095F040048033
:1002000000800480008047C3E52E95218520F0639F
:10021000F080E52D648095F05002800280077D20FB
:1002200012015680277C007D0AAA31AB3212008B66
:10023000E52EC39BFDE52D9AFCED2521FDEC352037
:10024000FC74332D24FFF9870512015680057D20AB
:100250001201560521E52170020520E52124F8E56B
:10026000206480347F500280030201D50532E532DC
:10027000700205310201C822020196E5836003E4A1
:100280009322A882E622E5836004E4938003A88297
:10029000E6F822E5836004E4938003A882E6F9226D
:1002A000E5836004E4938003A882E6FA22E5836094
:1002B00004E4938003A882E6FB22E5836004E493D0
:1002C0008003A882E6FC22E5836004E4938003A80F
:1002D00082E6FD22E5836004E4938003A882E6FEC3
:1002E00022E5836004E4938003A882E6FF22C0062F
:1002F000C007AE04AF058A838B8212027BA3AA8358
:10030000AB828F010FF770EEAA04AB05D007D006C1
:1003100022E4F5D075818078207A60F608DAFC1244
:050320000114020000C1
:00000001FF
