:100000000203A6805612005DE4F525F5268008055A
:1000100026E52670020525E52624FFE525648034C3
:100020007F5002800280E81200C1EBF5A0E520FBC2
:100030003395E0FAA9A07800E9B50306E8B5020215
:10004000800AE5A024E0600480008004800080082D
:1000500085A020AD2012032C80AE2280A880607580
:10006000800075900075A00075B000752020752384
:1000700000752408E4F521F5227D021203837D73C7
:1000800012032C7D7412032C7D6112032C7D7212DD
:10009000032C7D7412032CE4F525F5268008052633
:1000A000E52670020525E52624CEE5256480347F0B
:1000B0005002800280E8120373E4F521F5222280C9
:1000C0009E020329752B20C282A28292819280D245
:1000D000A4A2A492A392A292A192A020A002800224
:1000E000800675270075280420A10280028006750D
:1000F000270075280320A20280028006752700755C
:10010000280220A30280028006752700752801209E
:10011000A40280028005E4F527F528D282A282920B
:10012000819280C2A4A2A492A392A292A192A020A2
:10013000800280028005E4F529F52A2081028002F0
:100140008006752900752A012082028002800675CA
:100150002900752A02E5284527700C8000E52A450C
:100160002970048000800480008003752B37E52807
:10017000B40111E527B4000C8000E52A452970047C
:100180008000800480008003752B38E528B40211BC
:10019000E527B4000C8000E52A4529700480008022
:1001A0000480008003752B39E528B40311E527B4DA
:1001B000000C8000E52A452970048000800480003E
:1001C0008003752B2BE528B40411E527B4000C80BF
:1001D00000E52A45297004800080048000800375B2
:1001E0002B2DE528452770108000E52AB40109E58C
:1001F00029B400048000800480008003752B34E55E
:1002000028B40115E527B400108000E52AB40109DF
:10021000E529B400048000800480008003752B353C
:10022000E528B40215E527B400108000E52AB401E2
:1002300009E529B400048000800480008003752B48
:1002400036E528B40315E527B400108000E52AB48C
:100250000109E529B4000480008004800080037552
:100260002B2AE528B40415E527B400108000E52A00
:10027000B40109E529B400048000800480008003F3
:10028000752B2FE528452770108000E52AB4020958
:10029000E529B400048000800480008003752B31C0
:1002A000E528B40115E527B400108000E52AB40262
:1002B00009E529B400048000800480008003752BC8
:1002C00032E528B40215E527B400108000E52AB411
:1002D0000209E529B40004800080048000800375D1
:1002E0002B33E528B40315E527B400108000E52A78
:1002F000B40209E529B40004800080048000800372
:10030000752B30E528B40415E527B400108000E50E
:100310002AB40209E529B40004800080048000802A
:1003200003752B2EAB2B8000220200C48043D2B178
:10033000C2B08D908D27E52424FFFDE52334FFFC1A
:10034000C3E5229D8CF063F080E521648095F04048
:10035000028002800FE4F521F5221203737D021260
:10036000038380080522E52270020521D2B2C2B2C1
:100370002280BB800CC2B1C2B0759001D2B2C2B2B1
:100380002280F2800BC2B1C2B08D90D2B2C2B22232
:1003900080F3E4F5D075812C78207A0CF608DAFC2D
:0903A000120003020000020392A6
:00000001FF
