:100000000200C880332089028002800312009FD240
:1000100089D0F0D000D001D002D003D004D005D0D8
:1000200008D009D00AD00BD00CD00DD00ED00FD0F4
:1000300083D082D0E0D0D032C0D0C0E0C082C083B4
:10004000C00FC00EC00DC00CC00BC00AC009C00854
:10005000C005C004C003C002C001C000C0F080A53C
:10006000801C120080D2B1C2B1800020B002800298
:1000700080F98590A0E521A2E0928780E82280E2C5
:10008000801B7400F5B0F5A0F590F580E4F520F53F
:100090002175A800D2AFD2A8D288D2892280E3806D
:1000A00015E52145206002800479018002790078FD
:1000B00000882089212280E9E4F5D0758122F5208D
:0B00C000F5211200600200000200B8F1
:00000001FF
