:100000000200D9E5836003E49322A882E622E58317
:100010006004E4938003A882E6F822E5836004E4A8
:10002000938003A882E6F922E5836004E4938003C9
:10003000A882E6FA22E5836004E4938003A882E6BE
:10004000FB22E5836004E4938003A882E6FC22E5BA
:10005000836004E4938003A882E6FD22E5836004C4
:10006000E4938003A882E6FE22E5836004E49380A3
:1000700003A882E6FF22C006C007AE04AF058E8348
:100080008F82120003A3AE83AF8270F2EFC3950597
:10009000FBEE9504FAEB24FFFBEA34FFFAD007D01D
:1000A0000622C006C007AE04AF058A838B82120009
:1000B00003A3AA83AB828F010FF770EEAA04AB05EE
:1000C000D007D00622E4F5D075817378207A53F6F4
:0C00D00008DAFC1201100200000200C55A
:10010000C8C3CDC0D2CEC2C8D720C2C0C4C8CC00DC
:1001100080111201257A007B057C017D001201C34C
:1001200080FE2280ED802D75220175250275230841
:1001300075240E7526047527067528807529C075E7
:100140002AC1752B83752C38C287D286D285AD2201
:100150001201562280D1800BC286C2878DA0D28523
:10016000C2852280F3805A7570008D71C287D28655
:100170008D72E5722440500C8000E572240E40041C
:100180008000800480008026A9727800E924E0F5D0
:1001900071E834FFF570E572243A50028002800E57
:1001A000A9727800E924E1F571E834FFF570E57291
:1001B000B4A8067570007571A68571A0D285C28538
:1001C0002280A40203678A2F8B308C318D32AC31B0
:1001D000AD321200768A2D8B2E753300753401E412
:1001E000F535F536AA31AB327C007D391200A2AD6F
:1001F00022120156E52E2408F530E52D3400F52FA6
:10020000E534C3952EF536E533952DF535E53520E6
:10021000E70280028076E53624FFE5356480347F8E
:10022000500280028014E53624FFFDE53534FFFCE2
:1002300012036A7D201201658007AC35AD361203CA
:100240006AE4F520F521802AE5362521FDE53535DE
:1002500020FCED24F8EC6480347F40028002800AA8
:1002600074392521F987051201650521E521700200
:100270000520C3E521952E852DF063F080E52064EF
:100280008095F04002800280BF0203157C007D0053
:1002900012036A7408C39534FD74009533FCEC2096
:1002A000E7028002803CE4F520F521801CE521C3B3
:1002B0009536FDE5209535FC74392DF98705120139
:1002C000650521E52170020520C3E52195348533BC
:1002D000F063F080E520648095F04002800280CDDC
:1002E0008033E4F520F521801CE521C39536FDE53A
:1002F000209535FC74392DF987051201650521E536
:100300002170020520E52124F8E5206480347F5027
:1003100002800280D4E4F520F52180080521E52142
:1003200070020520E52124D4E5206480347E50024B
:10033000800280E8E52E2408FDE52D3400FCC3E5AD
:10034000349D8CF063F080E533648095F04002804A
:1003500002800875330075340180080534E5347077
:10036000020533020200220201C6800D8C708D71DD
:0B037000E5712480FD1201562280F18F
:00000001FF
