:100000000200B6E5836003E49322A882E622E5833A
:100010006004E4938003A882E6F822E5836004E4A8
:10002000938003A882E6F922E5836004E4938003C9
:10003000A882E6FA22E5836004E4938003A882E6BE
:10004000FB22E5836004E4938003A882E6FC22E5BA
:10005000836004E4938003A882E6FD22E5836004C4
:10006000E4938003A882E6FE22E5836004E49380A3
:1000700003A882E6FF22C006C007AE04AF058E8348
:100080008F82120003A3AE83AF8270F2EFC3950597
:10009000FBEE9504FAEB24FFFBEA34FFFAD007D01D
:1000A0000622E4F5D075813178207A11F608DAFC61
:0900B0001201050200000200A289
:100100003637363600801312011C7525017526001E
:10011000AC25AD261201D980F72280EB802D7587A2
:1001200000752100752214D29DD29FD29E53877FE5
:100130005389BF4389205389EF758DFAD28E75801C
:100140000075900075A00075B0002280D180748D7C
:100150002FE52F24BFFDE434FFFCEC20E7198000DD
:10016000E52F24A6FDE434FFFCED24FFEC6480348D
:100170007F4004800080048000800CE52F24BFF5C0
:100180002F7481252FF52FE52F24D0FDE434FFFCBB
:10019000EC20E7198000E52F24C6FDE434FFFCEDD8
:1001A00024FFEC6480347F40048000800480008061
:1001B0000CE52F24D0F52F7470252FF52FAD2F12BD
:1001C00001C522808A80108D998D3080003099027F
:1001D000800280F9C2992280EE02028C8C2D8D2E35
:1001E000AC2DAD2E1200768A2B8B2C7D6D12014D1D
:1001F0007D6D12014DE4F529F52AE52A24ECE52967
:100200006480347F5002800280028018052AE52A2B
:1002100070020529E52A24ECE5296480347F500228
:10022000800280E8E4F527F5288049E528252EF5A9
:1002300082E527352DF58312004F12014DE4F52993
:10024000F52AE52A24ECE5296480347F50028002F7
:1002500080028018052AE52A70020529E52A24EC87
:10026000E5296480347F5002800280E80528E52873
:1002700070020527C3E528952C852BF063F080E5F7
:0F02800027648095F04002800280A0220201DCFA
:00000001FF
