:1000000002012F8048BD0309BC000680007A0180F0
:10001000027A00EAC42354E0FABD0109BC0006805C
:10002000007B0180027B00EB2A25E0FABD0209BCBF
:10003000000680007B0180027B00EB2A25E0FAE5C8
:100040000545047B0160011BEB2AF5902280B680F8
:100050004E75201375240175252374AA8524838584
:100060002582F0852483852582E0F520E4F522F5BC
:10007000238019852483852582E0F5200525E52543
:10008000700205240523E52370020522E52324FBE5
:10009000E5226480347F5002800280D780FE228077
:1000A000B080767521AA7520017C007D03120003C3
:1000B0007524007525AAE4F522F52380427C007D95
:1000C00002120003E521852483852582F08524839F
:1000D000852582E0F520E520B52104800080097C9B
:1000E000007D0112000380077C007D0012000305E3
:1000F00025E525700205240523E52370020522E588
:100100002324A9E522648034785002800280AE7CEA
:10011000007D0312000380FE228088E4F5D0758103
:100120002678207A06F608DAFC1200A10200000206
:02013000011BB1
:00000001FF
