:100000000200ED8033E52124F3E5206480347F5045
:100010000280028005E4F520F521E5212400F58227
:10002000E5203401F58312007AF5A0D287C2870556
:1000300021E521700205202280CB803C759000755F
:10004000A000E4F520F521E4F522F52330900280AC
:10005000028022120003E4F522F52380080523E53F
:100060002370020522E52324FFE5226480347F50BB
:1000700002800280E880D52280C2E5836003E49399
:1000800022A882E622E5836004E4938003A882E646
:10009000F822E5836004E4938003A882E6F922E570
:1000A000836004E4938003A882E6FA22E583600477
:1000B000E4938003A882E6FB22E5836004E4938056
:1000C00003A882E6FC22E5836004E4938003A8820F
:1000D000E6FD22E5836004E4938003A882E6FE2225
:1000E000E5836004E4938003A882E6FF2202010D09
:1001000079335B5F707F7B771F4E3D4F47E4F5D0BF
:10011000758124F520F521F522F52312003A02001D
:0101200000DE
:00000001FF
