:10000000020035C000C001ED8BF0A4F8A9F0ED8A24
:10001000F0A429F9EC8BF0A429FAE8FBD001D00078
:1000200022E4F5D0758124F520F521F522F523127F
:08003000010C02000002002196
:100100000002000500020005000100010201A61224
:1001100001A9D2807C007D021201BDC2807C007DDD
:10012000021201BDD2807C007D051201BDC2807C1F
:10013000007D021201BDD2807C007D021201BDC291
:10014000807C007D021201BDD2807C007D02120104
:10015000BDC2807C007D021201BDD2807C007D0585
:100160001201BDC2807C007D021201BDD2807C00E4
:100170007D021201BDC2807C007D021201BDD280D1
:100180007C007D011201BDC2807C007D021201BD98
:10019000D2807C007D011201BDC2807C007D0212F4
:1001A00001BD0201122202010F80107580007590BE
:1001B0000075A00075B0007589012280EE02043D33
:1001C0008C228D237C177D70AA22AB231200038A18
:1001D000228B23E52230E70280028002802A758C80
:1001E00000758A00D28C8000208D02800280F9C2C6
:1001F0008CC28DE52324FFF523E52234FFF522E5AB
:100200002230E702800280D6E4F520F521E52124A2
:10021000C2E52064803416500280028002801805F6
:1002200021E52170020520E52124C2E52064803407
:10023000165002800280E8E4F520F521E52124C271
:10024000E520648034165002800280028018052167
:10025000E52170020520E52124C2E52064803416E2
:100260005002800280E8E4F520F521E52124C2E572
:10027000206480341650028002800280180521E537
:100280002170020520E52124C2E520648034165047
:1002900002800280E8E4F520F521E52124C2E52072
:1002A0006480341650028002800280180521E52106
:1002B00070020520E52124C2E52064803416500236
:1002C000800280E8E4F520F521E52124C2E52064E0
:1002D00080341650028002800280180521E52170CA
:1002E000020520E52124C2E52064803416500280F6
:1002F0000280E8E4F520F521E52124C2E5206480B0
:10030000341650028002800280180521E521700217
:100310000520E52124C2E5206480341650028002C5
:1003200080E8E4F520F521E52124C2E5206480344D
:100330001650028002800280180521E52170020516
:1003400020E52124C2E5206480341650028002801A
:10035000E8E4F520F521E52124C2E5206480341687
:1003600050028002800280180521E52170020520DC
:10037000E52124C2E520648034165002800280E822
:10038000E4F520F521E52124C2E5206480341650EF
:10039000028002800280180521E52170020520E517
:1003A0002124C2E520648034165002800280E8E4F3
:1003B000F520F521E52124C2E520648034165002A1
:1003C0008002800280180521E52170020520E521C8
:1003D00024C2E520648034165002800280E8E4F5EF
:1003E00020F521E52124C2E52064803416500280E6
:1003F00002800280180521E52170020520E52124F4
:10040000C2E520648034165002800280E8E4F520C2
:10041000F521E52124C2E5206480341650028002D3
:10042000800280180521E52170020520E52124C203
:10043000E520648034165002800280E8220201C068
:00000001FF
