:100000000202DA02009212009575C80430B0028034
:10001000028013E52B452A700280028009120151EB
:10002000752A00752B0130B10280028013E52B4543
:100030002A700280028009120184752A00752B0142
:1000400030B20280028013E52B452A7002800280C4
:1000500009120135752A00752B0130B30280028028
:1000600013E52B452A700280028009120143752A8C
:1000700000752B01A2B072B172B272B3400280025D
:100080008005E4F52AF52BAC22AD231200FB02001B
:100090000C2202000680627400F5B0F5A0F590F520
:1000A00080E4F52AF52B75280075293C752200752A
:1000B000231E75200075210C75260075271E7524DA
:1000C0000075253C75CB0475CA0175C80075CDFF58
:1000D00075CCFFD2ADD2AFC2A1C2A2D2A0C2A07DC8
:1000E000201201B77D511201B77D3D1201B77D335A
:1000F0001201B77D301201B722809C80368C2E8D84
:100100002F7C007D39AA2EAB2F1202A88A2C8B2DB2
:10011000D2A78000AA2CE52D152D7002152C4A704F
:1001200002800280EFC2A7800030CF02800280F9F7
:10013000C2CF2280C8800A75220075231E1201C614
:100140002280F4800A7522007523321201C62280B3
:10015000F4802FE52524F6FDE52434FFFCC3ED955E
:10016000238522F063F080EC648095F040028002E9
:10017000800CE523240AF523E5223400F522120140
:10018000C62280CF802FE527240AFDE5263400FC17
:10019000C3E5239D8CF063F080E522648095F040F8
:1001A000028002800CE52324F6F523E52234FFF5D6
:1001B000221201C62280CF800B8D90D2A1C2A2D282
:1001C000A0C2A02280F3801E759082C2A1C2A2D2DA
:1001D000A0C2A07C007D0AAA22AB23120278EB24E5
:1001E00030FD1201B72280E0E4F5F0F8F9EA4B6047
:1001F00043EC4D701322EAC39C40137004EB9D4006
:100200000DEDC333FDEC33FC05F0EC30E7E8EAC359
:100210009C40067007EB9D5003C38008C3EB9DFB19
:10022000EA9CFAD3E933F9E833F8ECC313FCED1395
:10023000FDD5F0DA8B058A048802890322C000C04C
:10024000011201E8D001D00022C000C0011201E873
:10025000D001D0008C028D0322EA30E707E4C39B73
:10026000FBE49AFAEC30E707E4C39DFDE49CFC2232
:10027000120278AA04AB0522C000C001EC6A33EA7E
:1002800013C0E01202591201E8D0E0C0E030E707E5
:10029000E4C39BFBE49AFAD0E030E607E4C39DFD9B
:1002A000E49CFCD001D00022C000C001ED8BF0A482
:1002B000F8A9F0ED8AF0A429F9EC8BF0A429FAE86A
:1002C000FBD001D00022E4F5D075813078207A107F
:0D02D000F608DAFC1200030200000202C66C
:00000001FF
